:020000040000FA
:04000000C7EF02F054
:10000800D8CF60F0E0CF61F00001626FE9CF63F014
:10001800EACF64F0CECF15F4CFCF16F4B2CF19F4EF
:10002800B3CF1AF41DC417F41EC418F41FC41BF46C
:1000380020C41CF49EA056D09E90040100A104D0B8
:100048000B2B000E0C234ED0040100A34BD0132B16
:10005800000E142313511411D8A444D0CE500D27E8
:10006800CF500E230E51CF6E0D51CE6E11C413F426
:1000780012C414F40FC40DF410C40EF41D2B000E9A
:100088001E2300A703D08A82898000970401052BCC
:10009800020E05651FD0056BEAC006F40001D3AD5A
:1000A8000FD0E4A70DD00401032F0AD00001D38993
:1000B800040E0401036F0001D3BF02D0D84FD39DB3
:1000C80004010453D8B404D0042F0CD0899A0AD060
:1000D800899A08D00401052D03D0EBC006F402D09C
:1000E800ECC006F4A1A257D0A192040100A904D043
:1000F800282B000E29234FD0040100AB4CD02E2B07
:10010800000E2F232E512F11D8A445D0B2502A27E4
:10011800B3502B232B51B36E2A51B26E2CC42EF43C
:100128002DC42FF433C42AF434C42BF4242B030E27
:100138002461246B040123517F0AD8A4232B0401D2
:1001480001B329D004013053D8B402D0306B23D086
:100158000001E82D0FD00401008D2653D8A41BD030
:100168003553D8B418D0352F16D00183009DB36A03
:10017800B26A11D024C426F404012653D8A403D0AB
:10018800EAC027F408D00401262D03D0EBC027F4D9
:1001980002D0ECC027F49EAABAD09DAAB8D09EAAD5
:1001A800B6D0ABCF65F0AECF66F00001D5B703D0BF
:1001B800350E666300D0000165B503D0000165A364
:1001C80005D0AB98AB880001D597E9D70001DA5381
:1001D800D8A466D0D4A915D0D4AB02D0D49B7BD0F8
:1001E800230E0001666302D0D48B75D0350E000152
:1001F800666304D0D4BD6FD0D4996DD00001D49D6E
:100208006AD0350E0001666303D0D489D48D63D0DB
:100218003A0E000166617BD0300E666578D066C004
:10022800DAF0D48F9DB839D09E53D8A436D08AA698
:1002380002D08A8832D00001D5810001C953D8A4E0
:1002480002D08AA613D08A880001D583050EC96119
:100258005ED0EA6ACB0EC825E96E66C0EFFFC82BF0
:10026800050EC861C86B0001C92B51D0280E0001CA
:100278009E610DD0EA6AA00E9D25E96E66C0EFFF6B
:100288009D2B280E9D619D6B00019E2B9D88240E41
:1002980000019E653CD08A883AD00001D5911BD0D8
:1002A8000001D5A502D0D59513D0230E00016663B1
:1002B80002D0D5850DD000016651DA6307D0D4AFDE
:1002C800DA6B0001D5A107D0D591B7D70001D49F2B
:1002D8000001D5B1B2D7280E000173610CD0EA6ACB
:1002E800750E7225E96E66C0EFFF722B280E7261DB
:1002F800726B0001732B240E0001736502D08A888B
:100308004ED70001C953D8A44AD78A9848D79DA880
:1003180032D09EA830D08AB629D00001D491ACB290
:10032800D481C953D8B40DD0EA6ACB0ECA25E96E78
:10033800EFCFADFFCA2B050ECA61CA6B0001C90712
:1003480017D00001D5B38A980001D5939E53D8B42D
:100358000DD0EA6AA00E9F25E96EEFCFADFF9F2B67
:10036800280E9F619F6B00019E0702D09D9803D0C5
:100378000001D4B1CED7F2A406D0F294D588D59E88
:100388000001DF83F29AF2A2C7D0F292F2A8C4D099
:100398000001D68BE82DACD00401019D019F26C435
:1003A80025F400AF56D019C431F41AC432F401A3AD
:1003B8001CD01A490BD01951B25C316F1A51B3587D
:1003C800326F3251B36E3151B26E02D0B36AB26A33
:1003D80004012653D8A4A0D015C4F8F116C4F9F125
:1003E80017C4FAF118C4FBF197D00401019131C484
:1003F80007F432C408F4010E075D800E0859D8A02E
:1004080005D0D880FF0E0757FF0E08570401085182
:10041800D8A403D0100E076519D0200E0401086176
:1004280015D0010E306F2653D8A408D015C4F8F1A2
:1004380016C4F9F117C4FAF118C4FBF1040102A1BA
:1004480002D0018169D00401028166D00401018DC6
:1004580063D004012653D8A412D00089009BA1922E
:10046800A082286B296B1951B25C2A6F1A51B358B4
:100478002B6F2B51B36E2A51B26E02814DD00401FD
:10048800262D32D000A948D001AB28D0191D336FD2
:100498001A1D346F33512A6F100E345D2B6F2B5198
:1004A800B36E2A51B26E030E3327000E342333C4C1
:1004B8002AF434C42BF4281D2C6F291D2D6F2CC44D
:1004C8002EF42DC42FF40099008B009D216B226B14
:1004D8007F0E236F020E246F02911ED00401009933
:1004E800018F018D009B18D004010099009B14D046
:1004F80089900401052D10D0F0C1F4F1F1C1F5F196
:10050800EEC1F2F1EFC1F3F117C4F0F118C4F1F143
:1005180015C4EEF116C4EFF19EA205D00301082B15
:10052800000E09239E9263C0E9FF64C0EAFF000140
:10053800625161C0E0FF60C0D8FF10000001E56BA8
:10054800E66BE46BEAC006F40401056B266BEAC0AF
:1005580027F4056BEAC006F40001E86BE9690401B9
:10056800009F0099009B01930191019501870199D2
:10057800019B0095029305017B6B7D6B7C6B0401ED
:10058800096B0A6B120027EC0BF0350E0001D06FD7
:10059800726B746B736B9D6B9F6B9E6BD597D599C4
:1005A800D493D495D497D499D49BD49DD49FD591E2
:1005B800D593D595D59FD689D495D59DD391D393E9
:1005C800D395D397D399D39BD39DD39FD59BD86BE2
:1005D800D890D035C86EDE91DE95DE99DE8B0101AC
:1005E8000E930001DF9301010E850001DA6BD96BD0
:1005F800DB69DC69DD6B390ED16F03010097300EC2
:1006080065EC0BF00001E36F310E65EC0BF00001B7
:10061800EA6F320E65EC0BF00001EB6F330E65EC00
:100628000BF00001EC6F340E65EC0BF00001ED6F80
:10063800350E65EC0BF00001EE6F360E65EC0BF035
:100648000001EF6F7BDF0301009100930095036BBE
:100658008B8A8B988B960001D69BD69DD69FD78385
:100668000101266BD193D1950401306B366B009351
:1006780003011B6B1C6B1D6B1E6B1F6B206B216BAF
:10068800226B0A6B0B6B0C6B0D6B0E6B0F6B106B8D
:10069800116B126B136B146B156B166B176B086B66
:1006A800096B04011D6B1E6B1F6B206B0295899AE9
:1006B800046BF28CF28EF290E60E0101016F006B72
:1006C800120E0101006108D0010EEA6E01C1E9FFB6
:1006D800EF6A012B002BF4D70401236B0101036B94
:1006E800046B9EEC08F05BEC0BF0F28804010285C9
:1006F80002950301186B196B800E1A6FA00E00018A
:10070800676F2C0E686F39EC3EF00001D38DD38FE4
:10071800020ED86F040EE46FE48F040E0401036F19
:100728003CD841EC09F0000AD8B4FAD70001735359
:10073800D8B410D0C0EC08F0000AD8B4F1D7C7D8A4
:10074800A6D98AA8EDD7240E0001736501D0E8D791
:100758008A98E6D705017C53D8B4E2D7040102A3EE
:1007680005D00001D953D8B4DBD706D004010283E1
:100778000001D953D8A4D4D7260E00019E6106D013
:1007880067D91DD80001D953D8A4F6D705017C53E1
:10079800D8A4C6D704010293C3D70001D5B10ED09F
:1007A800DA53D8A40BD09DB809D08AB607D09E5387
:1007B800D8B404D0ACA202D0AC8A9D881200010142
:1007C8000C6F0001D953D8B417D0D4A502D0D49552
:1007D80020D0230E01010C6303D00001D48519D069
:1007E80001010C510001D96304D0D4B712D0D96BE0
:1007F80010D00001D4970DD03A0E01010C6108D039
:10080800300E0C6506D00CC1D9F00001D48701D098
:100818001200260E00019E6502D0BFDFFAD7EA6AF1
:10082800A00E00019D25E96E0CC1EFFF9D2B280E3F
:100838009D619D6B00019E2B120001010B6F000151
:10084800D6A713D0240E00019E6501D0FBD7230E36
:1008580001010B6301D007D0300E01010B6505D0F3
:100868003A0E0B6102D0230EAADF01010B51A7D764
:100878007F6E7F50D8B407D07F5078EC16F09FDF9A
:100888007F2A7F06F6D71200010104517AEC16F090
:10089800000AD8B41BD00001D6A710D0010104511A
:1008A8007AEC16F03008D8B009D0010104517AEC7E
:1008B80016F03908D8A002D0230E81DF01010451B7
:1008C8007AEC16F07CDF0101042BDED71200EA6A0D
:1008D800750E00017425E96EEFCF67F0742B280EB2
:1008E8007461746B730767511200800E0101046F05
:1008F8008B9A050E9AEC0BF0010104AF05D0C0EC01
:100908000BF00101046FF8D78B8A12007F6E8BAA57
:1009180010D0EBDF030E9AEC0BF0030118519AECA0
:100928000BF003011A519AEC0BF0030119519AECE0
:100938000BF0C0EC0BF07F6E0301192B000E1A238D
:100948001951D8A405D08B8A19511A11D8B4182B6B
:1009580012000101036F8BAA17D0C7DF8B9A060E0E
:100968009AEC0BF08B8A00008B9A020E9AEC0BF033
:10097800030118519AEC0BF003011A519AEC0BF091
:10098800030119519AEC0BF0010103519AEC0BF099
:100998000301192B000E1A231951D8A405D08B8AEC
:1009A80019511A11D8B4182B12007F6E9EDF8B9A3A
:1009B800060E9AEC0BF08B8A00008B9A200E9AECAC
:1009C8000BF0030118519AEC0BF07F509AEC0BF0E6
:1009D800000E9AEC0BF08B8A12000101036F0001E4
:1009E800D6A719D0230E0101036301D007D0300E1A
:1009F8000101036510D03A0E03610DD005EE7EF0BB
:100A080005017B51E926230EEF6E7B2B780E7B6167
:100A18007B6B05017C2B05EE7EF005017B51E926F9
:100A280003C1EFFF7B2B780E7B617B6B05017C2B71
:100A380012007F6E05EE03F005010051E9267FCF15
:100A4800EFFF002B780E0061006B0501012B1200EF
:100A580005EE7EF005017D51E926EFCF02F17D2BF1
:100A6800780E7D617D6B05017C0701010251120042
:100A780005EE03F005010251E926EFCF7FFF022BB7
:100A8800780E0261026B050101077F501200010117
:100A9800026F0001D5B71AD0D5A902D0D59912D0C6
:100AA800350E0101026308D00001D587D693D6958B
:100AB800DE93D58BD59D1200230E0101026302D06F
:100AC8000001D589010102517ADEFCD20001D3A1CF
:100AD80019D0D5A902D0D59906D0230E01010263F9
:100AE80005D00001D59B0101025169D6350E0101DF
:100AF8000263F9D70001D5BBF6D70001D391D1C065
:100B080002F1F1D70001D5A902D0D59918D0230E4A
:100B18000101026309D00001D59BD5BF02D0D58958
:100B280002D00001DE831200350E0101026305D0F8
:100B38000001D5BB12000001D5970001D59B030128
:100B480000A1C0D000A306D0009302C101F3009514
:100B5800026BB7D0030100A514D070D00001D6876E
:100B6800C0EC0BF06ADE19DE0101022FF9D7030190
:100B780000950001D697D153D8B493D0D1511FDE38
:100B880090D00301012D16D00353D8A413D0400EE2
:100B9800010102630FD0030100850001D153D8B4CD
:100BA80008D0D1510CDE0001D253D8B402D0D251B2
:100BB80006D6120003010253D8A42CD0012D22D04E
:100BC8000353D8B415D08B9A03519AEC0BF08B8A47
:100BD800000000008B9A010102519AEC0BF08B8AFD
:100BE8000301036B00910001D6890301016B120018
:100BF80001010251060AD8A4EDD702C103F303018B
:100C080000874BD002C104F3030100A7036B030163
:100C1800009743D00301022D03D002C105F33DD054
:100C2800020E0301026303D002C106F336D0030E9D
:100C38000301026303D002C107F32FD08BAA1CD093
:100C480003010353D8B407D08B9A03519AEC0BF0E5
:100C58008B8A000000008B9A030104519AEC0BF078
:100C6800030105519AEC0BF0030106519AEC0BF0C5
:100C7800030107519AEC0BF0030100B504D0010100
:100C880002519AEC0BF00301053F04D0064B072BE9
:100C98008B8AD4D7030100B561D70301022B012F3A
:100CA8001200030100A708D00351060AD8B404D0E3
:100CB8008B9A03519AEC0BF0030100918B8A000187
:100CC800D68912000001E653D8B43AD0E62B020EBA
:100CD800E66309D001010251540AD8B403D00001D7
:100CE800E66BD68912000A0E0101026301D0F7D71C
:100CF800030E0001E66324D0440E0101026305D00F
:100D08000001E4A7ECD7D389EAD7500E01010263AA
:100D180005D00001D38D140ED86FD39F430E010167
:100D2800026305D00001D38D020ED86FD38F580E01
:100D38000101026305D00001D39D020ED86FD39F35
:100D48000001E553D8B43BD1E52B020EE56309D089
:100D5800740E0101026301D012000001E56BD6890F
:100D68002ED1030E0001E5631ED0640E010102635B
:100D780004D0040E0001E56F15D0730E0101026363
:100D880004D0090E0001E56F0DD0680E0101026361
:100D980006D0030E0001E56FA2EC02F003D0030EAB
:100DA8000001E56F1200040E0001E5630CD00A0E85
:100DB8000101026304D00001E56BD68903D0030E5C
:100DC8000001E56F12000A0E0101026304D0000160
:100DD800E56BD6891200050E0001E56309D0010113
:100DE8000251740AD8B403D0030E0001E56F120053
:100DF800060E0001E56319D0E46B650E010102637C
:100E080004D0010E0001E46F07D06C0E01010263EB
:100E180003D0040E0001E46F0001E48F0101D193B7
:100E2800060E0001E56FF2881200070E0001E56367
:100E380003D0060EE56F12000A0E0001E56319D013
:100E4800E46B7A0E0101026305D0040E0001E46F21
:100E5800060EE56F780E0101026303D00A0E000149
:100E6800E56F790E0101026303D0170E0001E56FEB
:100E780012000B0E0001E56301D012000C0E0001F8
:100E8800E5630ED002C1EDF02E0EED6302D0AA0E7E
:100E9800ED6F340E01010B6F0001ED516EEF0BF099
:100EA8000D0E0001E5630ED002C1EEF02E0EEE63CA
:100EB80002D0AA0EEE6F350E01010B6F0001EE5144
:100EC8006EEF0BF00E0E0001E5630DD002C1EFF0DE
:100ED8002E0EEF6302D0AA0EEF6F360E01010B6FD4
:100EE8000001EF51F7D30F0E0001E56308D002C1EE
:100EF800E3F0300E01010B6F0001E351EBD3100E4C
:100F08000001E56301D01200110E0001E56306D06F
:100F180001010239F00B0001EA6F1200120E000104
:100F2800E5630FD00F0E010102150001EA13EAC0B4
:100F380006F40401056B310E01010B6F0001EA5143
:100F4800C9D3130E0001E56306D001010239F00B85
:100F58000001EB6F1200140E0001E5630BD00F0EB9
:100F6800010102150001EB13320E01010B6F0001A4
:100F7800EB51B0D3150E0001E56306D0010102392B
:100F8800F00B0001EC6F1200160E0001E5630FD0A4
:100F98000F0E010102150001EC13330E01010B6F56
:100FA8000001EC5197DB030E0001E56F1200180EEB
:100FB8000001E56300D00001E56BD689120000014D
:100FC800D6A30BD0200E0101026301D0026B02C12F
:100FD800D1F00001D693D68512000001D6A535D0F0
:100FE800200E0101026301D0026B02C1D2F00001A0
:100FF800D695DE89D6892A0E010102630BD000013D
:10100800D151E3EC03F00001D151E3EC03F000010E
:10101800D38112003F0E0101026301D012000001CA
:10102800D153D8B411D0D151E3EC03F00001D2531D
:10103800D8B403D0D251E3EC03F07E0EE3EC03F016
:101048000001D151E3EF03F012003D0E01010263EC
:1010580004D00001D699D68335D07E0E01010263F3
:1010680003D00001D6812ED0460E0101026306D0BE
:101078000001D69903010081008324D0240E0101C8
:10108800026306D00001E4A71DD0D383D3851AD00C
:101098002A0E0101026305D00001E4A713D0D3830F
:1010A80011D0610E0101026305D0010E0001E56F48
:1010B800D69908D0410E0101026304D0010E000147
:1010C800E66FD69912000001D153D8B40BD0D68759
:1010D800D151E3EC03F00001D253D8B403D0D2517C
:1010E800E3EC03F003C104F148EC04F00001D15330
:1010F800D8B403D0D151E3EF03F0120003C109F4CF
:1011080004C10AF4D59E0001DF9301010451D76E92
:101118000351D66EF294F28A870ED56E1200CD90E6
:1011280001010451CF6E0351CE6E9E909D80810EB9
:10113800CD6E1200B19001010451B36E0351B26E2D
:10114800B192A192A082810EB16E12009E929D82F0
:10115800CC6A0301086B096B070ECA6E1200000106
:10116800D6BB010C0001E82D06D0A4EC11F0D6ABDB
:1011780002D0D68B010C000C0101026B040102B3F2
:10118800000C8AA608D00001D6A905D0030100A149
:1011980002D000B5000C0001D3A3010C0001E4A7A4
:1011A80032D0E4A52DD0170E0101266128D0F10E0A
:1011B8000001E76F6BEC04F00101036F0001D5A992
:1011C80002D0D5990FD0230E0101036303D000018B
:1011D800D58908D0350E0101036304D00001D597E5
:1011E800D393000C0001E48B01EE0FF001012651AE
:1011F800E92603C1EFFF262B170E266100D0000C4D
:101208000001E4B1D0D7010C0401262B020E26659B
:1012180004D0266BEAC027F408D00401262D03D099
:10122800EBC027F402D0ECC027F427C403F1010176
:10123800035112000401052B020E056504D0056B4D
:10124800EAC006F408D00401052D03D0EBC006F46B
:1012580002D0ECC006F40401065112000101036F2C
:101268008992250E32EC16F00101046F035156ECF9
:1012780016F08982010104511200F2A8E3D100019D
:10128800D6AB74D08992270E32EC16F00001E26FCB
:10129800700E56EC16F089820001E82D25D0040165
:1012A80001AD22D00001D69B0401019D8992E20E76
:1012B80056EC16F08982040101AF13D00001E497BF
:1012C800E49B0101266BA4EC11F00401266BEAC033
:1012D80027F42751C3DF0001E26FE2BDD68B04017A
:1012E800019FA6EC11F0010C0001D69BE82D0BD054
:1012F800F6EC12F0000AD8A40DEC10F00001E2ADF3
:1013080002D0D6ABD68B020E0001E86386D0E2ADE0
:1013180005D08992E20E56EC16F089820001E2AB04
:101328007CD004010553D8B408D000B335D0730E6F
:101338000101036F0469E2DE70D00001E4BB13D041
:10134800E4A102D0E4ADE49D04010199018762ECB7
:1013580015F00001E4B761D00C0E0101036FE00E37
:10136800046FCCDE5AD0A4EC11F057D00001DFA3F3
:1013780016D0DF930C0E0401096308D0E00E0A634F
:1013880005D00001E4B749D0E49947D0730E0401B1
:10139800096343D00A3D41D052EC14F03ED0040119
:1013A80000AD3BD0009D0001E82D37D0D8DE000A03
:1013B800D8B415D004012653D8A405D0020E266F40
:1013C800ECC027F409D004012607262D03D0EBC072
:1013D80027F402D0EAC027F426C425F450D714DF36
:1013E8003DDF0001E26FE2AD04D0D68B26C425F4C0
:1013F80046D7040100AF0FD02653D8A409D001A7BF
:1014080004D0A6EC11F0019908D00401018905D097
:10141800A6EC11F002D0A6EC11F00001E4AB60D00C
:10142800040100A347D00553D8A43FD000AF2CD067
:1014380001B306D00101D1A503D0040101A921D02F
:10144800CECF07F4CFCF08F4EF0E0401075DD80E16
:101458000859D8B045D0160E0101266501D007D02D
:10146800E00E0401075DB10E0859D8A039D000017B
:10147800D6BB05D7A4EC11F052EC14F00001E49BA4
:101488002FD0040101972CD004012653D8A428D0CA
:1014980066DE000AD8B4D4D7040100890101036BC1
:1014A800046B48DE0401009B1FD7040100AF18D06D
:1014B800019716D004010553D8A40FD000AF05D06A
:1014C80001B9D5D7040101970BD00001E82D08D048
:1014D80004012653D8A404D0CAD7040100BF019739
:1014E8000001E4A560D0E4A714D0D3B902D0D3ABEF
:1014F800A9D001012653D8A4A5D0500E0F6F490ECC
:10150800106F4E0E116F470E126F0001D399D39BC7
:1015180011D00001E4B996D001012653D8A492D085
:101528006C0E0F6F750E106F6E0E116F610E126FCD
:101538000001E4890001E4AF13D0000E7AEC15F045
:101548000001E49F0401009B266BEAC027F4266B88
:1015580062EC15F00401019B019D0199018700953A
:10156800EDC013F1EEC014F1EFC015F1EAC016F1A9
:10157800EBC017F1ECC018F1040100A308D00D511D
:101588000101196F04010E5101011A6F03D0010105
:10159800196B1A6BF00E0001E76F0C0E0101266F34
:1015A8000001E48B4FD00001E4A14CD0E4A734D073
:1015B800E4AD23D0D3AB46D001012653D8A442D002
:1015C800700E0F6F0001D39B01EEE6F011EE10F0E4
:1015D8000101026B120E0101026106D0EFCFE7FF95
:1015E800EE50E650022BF6D7F00E0001E76F130E0F
:1015F8000101266F0001E48B25D001012653D8A4F0
:1016080021D0650E0F6F610E106F720E116F7A0E7A
:10161800126F0001E48DA4D70001E4AF13D0000ECF
:101628007AEC15F00001E49F0401009B266BEAC0E8
:1016380027F462EC15F00401009F019B019D0199BC
:1016480001870095010CF80ED36E9B8C9BAC0AD0D9
:10165800040E0101036F010102690101022FFDD788
:10166800032FF9D7C26A0F0EC16ED00E926E2E0EDE
:10167800806E090E936E010E816E870E946E600E59
:10168800826E8468F298F19CF096870ED56E800E73
:10169800CD6E800EB16E36D8070ED56EF294F29AE2
:1016A8009E909D90F19CF292F090F19A1200350E66
:1016B800E3EC03F00101046B48EC04F0350EE3EFB2
:1016C80003F00101026F02C1A9FF3F0EA616A68012
:1016D800A850120001010C6F0BC1A9FF0CC1A8FF93
:1016E8003F0EA616D890F2BED880F29EA684550E5C
:1016F800A76EAA0EA76EA682A694D8B0F28EA6B23E
:10170800FED71200AC9CAB9CAC84440EAF6EAC9878
:10171800AB8E9D98AC9AAB969D8AAB881200CE6A28
:10172800CF6A490ECD6E9E909D90120000016B6F9E
:10173800080E6C6F8B988B966BBF8B866B378B887C
:101748006C2FF8D78B9812007F6E8B968B888B98AE
:101758008B888B988B888B988B888B988B888B98A9
:101768008B888B987FB28B868B888B988B967FB073
:101778008B868B888B981200080E00016B6F6C6B40
:10178800D8906C378B8882A005D082B206D082A40C
:1017980005D003D082A202D082B46C818B986B2FC3
:1017A800EFD76C5112000001686F68C06DF00DEC46
:1017B80016F00001685156EF16F00001696F01013B
:1017C800D1B705D0FB0ECA03F3CFCAF105D0DF0E9F
:1017D8000101CA03F3CFCAF1D177000169510101B0
:1017E800CA1BCA5156EC16F00101CA811200000149
:1017F800686F68C06DF00DEC16F000016851DDD718
:101808000001686F0101D1B705D0EF0ECA03F3CF0D
:10181800CAF105D08B0E0101CA03F3CFCAF1D17703
:10182800000168510101CA1BCA5156EC16F00101AA
:10183800CA8112000001686F0101D1B705D0E30E1B
:10184800CA03F3CFCAF105D0970E0101CA03F3CF3B
:10185800CAF1D177000168510101CA1BCA5156EC7F
:1018680016F00101CA81120000016C6F6CC0C5F14D
:10187800C5C1C4F10101CD69CE69010EEA6E6BC024
:10188800E9FF11EEA3F0D197CA69D46B0101C451E5
:10189800D4615BD0EFCFE7FFD451040AD8B450D05D
:1018A800040ED46538D004012553D8A40ED0010104
:1018B800D1B705D0FB0ECA03F3CFCAF124D0DF0E8F
:1018C8000101CA03F3CFCAF11ED00401252D0ED0A1
:1018D8000101D1B705D0EF0ECA03F3CFCAF113D077
:1018E8008B0E0101CA03F3CFCAF10DD00101D1B7A4
:1018F80005D0E30ECA03F3CFCAF105D0970E010154
:10190800CA03F3CFCAF1D1770101CA51EF18E76EC4
:10191800010EEF10CA6F0101C551D46104D0E7CFA1
:101928006DF00DEC16F0050E0101D46309D0180E08
:10193800E7601FD0080EE724C46F060EE724C56FC2
:10194800EE50E6500101D42BA1D7E550E550E75001
:101958000101D36FD26BE650E750D227000ED32394
:10196800CD51D26306D0CE51D36303D0C4C1C3F1E5
:10197800000C0101C36BFF0C00016C6F0101D76BF8
:10198800010EEA6E6BC0E9FF00016C53D8B4F6D0C3
:101998000101D46BAA0EEF620BD0EE50EF50F00AA3
:1019A800D8B403D0F10EEF6230D00101D42B33D07C
:1019B800AB0EEF620AD0EE50F80EEF14C00AD8A4AE
:1019C80024D0060E0101D76F26D0AF0EEF6209D0E2
:1019D800EE50E00EEF14D8A418D0040E0101D76F12
:1019E8001AD0BC0EEF6207D0EE50EFBE0ED0020E3A
:1019F8000101D76F10D0EF50F00AD8B403D0F10E20
:101A0800EF6202D0ED5007D0EE500101D42B0A0E40
:101A1800D465C0D7000C030E0101D45FD4C1D6F140
:101A2800D4AF24D0010EEA6E00016C516B25E96E2B
:101A3800ED500101D46DD4C1D5F1D451E95CE16E0A
:101A4800000EEA58E26ED45100016C5D0101D46FBA
:101A5800E7CFEFFFED50E5500101D42FF9D7AA0EDB
:101A6800EF6EED500101D52FFAD722D00101D453E2
:101A7800D8B41ED0010EE26E6BC0E1FFD451E12450
:101A8800E96E000EE220EA6ED4C1D5F1D45100010E
:101A98006C5D0101D46FD407EFCFE7FFEE50E6503D
:101AA8000101D42FF9D7E76AE6500101D52FFBD7FA
:101AB8000101D753D8B43DD0010EEA6E00016B295D
:101AC800E96EAA0E0101D86FD65100016C5D0101C3
:101AD800D46FD407EFCFD9F1020E0101D76308D034
:101AE800D947D947030ED915D86FFC0ED91717D087
:101AF800040E0101D76307D0D93B0F0ED915D86F53
:101B0800F00ED9170CD0060E0101D76308D0D93BC7
:101B1800D947D9473F0ED915D86FC00ED917D9C1A3
:101B2800EFFFED500101D851EF12EE50EE50D42FD7
:101B3800D1D7010EEA6E00016B51E96EEF50AA0A87
:101B4800D8B410D0010EEA6E6B29E96EEF50AA0ADC
:101B5800D8B408D0010EEA6E020E6B25E96EAA0E03
:101B6800EF620CD0010EEA6E6BC0E9FFAA0EEF6EB1
:101B7800EE50AA0EEF6EEE50AA0EEF6E0101D6518E
:101B880000016C5D120060C1C5F160C1C4F101EED5
:101B980040F011EE61F021EE82F0A30E0101C66F54
:101BA800D26BD36BCD69CE69CA69CB69CC69D19741
:101BB8008151C46102D081C1C4F10101A251C46143
:101BC80002D0A2C1C4F10101D46B0101C451D46196
:101BD8009CD0040ED4611FD0EFCFD8F1D8C1DBF16F
:101BE800E750D819C96FC91DDB17DF50C915DB13BA
:101BF800DBC16DF00DEC16F0E9CFC7F1EACFC8F103
:101C0800010EEA6EC6C1E9FFDBC1EFFFC7C1E9FFFC
:101C1800C8C1EAFF66D0040E0101D46555D0D1B71A
:101C28000DD0FB0ECA03F3CFCAF1EF0ECB03F3CFEF
:101C3800CBF1E30ECC03F3CFCCF10DD0DF0E0101D5
:101C4800CA03F3CFCAF18B0ECB03F3CFCBF1970EB8
:101C5800CC03F3CFCCF1D1770101CA51EF18D86F7B
:101C6800D8C1DBF1CB51E718D96FD951D819C96F51
:101C7800C91DDB17CC51DF18DA6FDA51C917C95102
:101C8800DB13C551D46104D0DBC16DF00DEC16F047
:101C9800E9CFC7F1EACFC8F1010EEA6EC6C1E9FF84
:101CA800DBC1EFFFC7C1E9FFC8C1EAFF0101DB5192
:101CB800CA190109CA6FDB51CB190109CB6FDB5176
:101CC800CC190109CC6F0DD0E9CFC7F1EACFC8F123
:101CD800010EEA6EC6C1E9FFEF6AC7C1E9FFC8C1D4
:101CE800EAFF050E0101D46309D0180EDB6125D087
:101CF800080EDB25C46F060EDB25C56FEE50E650D7
:101D0800DE500101C62BD42B60D7010EEA6EC6C186
:101D1800E9FFED50ED50EF500101D36FD26BEE505B
:101D2800EF50D227000ED323CD51D26306D0CE5127
:101D3800D36303D0C4C1C3F1000C0101C36BFF0C12
:101D4800800E0101DC6F60C1C4F1D1996053D8B431
:101D580016D08153D8B413D001EE43F011EE66F0DB
:101D68006051816102D081C1C4F1FB0E0101DE6FB7
:101D7800DF0EDF6FEF0EE06F8B0EE16F39D00101E0
:101D88008153D8B419D0A253D8B416D001EE64F058
:101D980011EE87F08151A26103D0A2C1C4F102D033
:101DA80081C1C4F1EF0E0101DE6F8B0EDF6FE30E10
:101DB800E06F970EE16F1CD001016053D8B426D1B3
:101DC800A253D8B423D101EE43F011EE87F060514D
:101DD800A26103D0A2C1C4F102D060C1C4F1FB0E5C
:101DE8000101DE6FDF0EDF6FE30EE06F970EE16F2C
:101DF800C4C1C5F121EEA3F00101D26BD36BD40E9F
:101E0800CD6F500ECE6FAA0EDF6EDE50AA0EDF6EBB
:101E1800DE50AA0EDF6EDE50EFCFDFFFDE50EFCFD1
:101E28006DF00DEC16F0EE50DF6ADE50EE50010159
:101E3800CA69CB69D197050ED46F0101C451D46129
:101E4800D1D0D1B709D0DE51CA03F3CFCAF1E051DE
:101E5800CB03F3CFCBF109D00101DF51CA03F3CF94
:101E6800CAF1E151CB03F3CFCBF1D1770101CA51CC
:101E7800EF18D86FD8C1DBF1CB51E718D96FDD6BFC
:101E8800D851D919D8B488D0C405D4617ED07F0E72
:101E9800DC653BD00101DD2BD951CA190109E46F7A
:101EA800010EE710E56FD1B709D0DE51E403F3CF97
:101EB800E4F1E051E503F3CFE5F109D00101DF5189
:101EC800E403F3CFE4F1E151E503F3CFE5F1EE509C
:101ED800E6500101E451EF18E26FE551E718E36FAE
:101EE800ED50E550E251E3630BD0DC2BD9C1DBF1B7
:101EF800D951CA190109CA6F010EE710CB6F55D025
:101F0800010E0101DD6501D038D00101DD2B010E84
:101F1800EF10E46FD851CB190109E56FD1B709D09B
:101F2800DE51E403F3CFE4F1E051E503F3CFE5F14B
:101F380009D00101DF51E403F3CFE4F1E151E503F6
:101F4800F3CFE5F1EE50E6500101E451EF18E26FEE
:101F5800E551E718E36FED50E550E251E36309D02E
:101F6800DC07010EEF10CA6FD851CB190109CB6FEE
:101F78001CD0010E0101DD658DD7010EEF100101A6
:101F8800CA6F010EE710CB6F10D0800E0101DC651F
:101F98000CD0D9C1DBF109D00101DB51CA19010903
:101FA800CA6FDB51CB190109CB6FDBC1DFFF010120
:101FB800C551D46104D0DBC16DF00DEC16F0050EEF
:101FC8000101D46309D0180EDB6120D0080EDB258F
:101FD800C46F060EDB25C56FEE50E650DE500101DA
:101FE800D42B2BD7DD50DD50DF500101D36FD26BDE
:101FF800DE50DF50D227000ED323CD51D26306D056
:10200800CE51D36303D0C4C1C3F1000C0101C36B2B
:10201800FF0CA30E0001676F0101D1B1120001018D
:10202800D18167C069F0010EEA6E050E00016925CD
:10203800E96EEFCF68F0898A010E0401046F010E82
:10204800EA6E030E00016925E96EF00EEF6239D1E0
:10205800010EEA6E060E6925E96EEF50650AD8B4DE
:1020680008D0010EEA6E060E6925E96E6C0EEF6265
:1020780088D0010EEA6E0A0E00016925E96EEFCFDD
:10208800F3F0010EEA6E0B0E6925E96EEFCFF4F05E
:10209800010EEA6E0C0E6925E96EEFCFF5F0010E20
:1020A800EA6E0D0E6925E96EEFCFF0F0010EEA6ECB
:1020B8000E0E6925E96EEFCFF1F0010EEA6E0F0EF4
:1020C8006925E96EEFCFF2F0E953D8A408D0F051B2
:1020D800F15DEA25EB6FF051F25DEA25EC6F000146
:1020E800E92D08D0F051F15DEB5DEA6FF151F25D39
:1020F800EB25EC6F020E0001E96308D0F051F25DA8
:10210800EC5DEA6FF151F25DEC5DEB6F010EEA6E8A
:10211800100E00016925E96EEE50EF10D8B40BD00F
:10212800010EEA6E100E6925E96EEECF33F4EECF9C
:1021380034F404010085010EEA6E060E00016925DB
:10214800E96E650EEF6205D0E4A5B8D0E4A713D018
:10215800B5D0010EEA6E060E00016925E96E6C0E17
:10216800EF62ACD0E4A1AAD0E4A705D0E4BDA6D024
:102178000001E49DA3D0020E0101036F67EC08F093
:102188009DD0010EEA6E060E00016925E96E570E14
:10219800EF6201D093D0010EEA6E060E00016925A8
:1021A800E96E520EEF6201D089D0010EEA6E060E7A
:1021B80000016925E96E500EEF6217D0010EEA6E34
:1021C800100E6925E96EEE50EF10D8B40BD0010E51
:1021D800EA6E100E6925E96EEECF33F4EECF34F4D3
:1021E800040100850001D38B69D0010EEA6E060E4A
:1021F80000016925E96E700EEF6260D0010EEA6E8B
:10220800170E6725E96EEF50D8B41BD0010EEA6EA1
:10221800180E6725E96EEF50D8B413D0010EEA6E98
:10222800180E6725E96EEF500401346F336B010E09
:10223800EA6E170E00016725E96EEF5004013313AB
:1022480000850001E487D153D8B438D0D697D1514E
:10225800F1EC04F00001D687D253D8B403D0440E71
:10226800F1EC04F0AA0E0001676F680700016853DB
:10227800D8B40BD0010EEA6E67C0E9FFEF50F1EC5D
:1022880004F00001672B6807F1D7E60E0001676FBD
:10229800120E686F00016853D8B40BD0010EEA6EB5
:1022A80067C0E9FFEF50F1EC04F00001672B680705
:1022B800F1D70001D697D151F1EC04F00001E48781
:1022C8003ED0120E000167278B8A22C321F368C013
:1022D80022F30301236B1BC318F31CC319F31A6BF6
:1022E8001F53D8A42BD02151ADEC04F00301202BAF
:1022F8002251ADEC04F00301202B2351ADEC04F086
:102308000301202B03011F53D8A410D0010EEA6E3D
:1023180067C0E9FFEF50ADEC04F01F0E03011A652A
:1023280002D0196B1A6B0301204B1F2B0001672B7E
:10233800682FE8D719C31CF318C31BF38B8A120044
:1023480089901200898012000301162B000E1723B2
:1023580016517F620CD017517F6209D01DC40EF34D
:102368001EC40FF3CECF12F3CFCF13F30CD003015B
:1023780016517F5C17517F58D8B005D07F28166F4B
:10238800000E7F20176F1200E8C1ECF1E9C1EDF1F2
:10239800E6C1EAF1E7C1EBF1FAC1E8F1FBC1E9F105
:1023A8000401252D04D0F00E0101E91B06D0020E10
:1023B8000401256302D00101E91F0101D6AF05D050
:1023C800E76BD6510008E66F04D0D6C1E6F10101EB
:1023D800E76B0101D653D8B405D0E731E631E76F92
:1023E800E66BE6330101D6AF21D0020ED76305D0E4
:1023F800200EE65F000EE75B11D0040E0101D763E3
:1024080005D0400EE65F000EE75B08D0060E01011E
:10241800D76304D0600EE65F000EE75B0101E6516A
:10242800F85DE66FE751F959E76F23D0020E010115
:10243800D76305D0200EE627000EE72311D0040E3F
:102448000101D76305D0400EE627000EE72308D028
:10245800060E0101D76304D0600EE627000EE723BD
:102468000101F851E627F951E723600EE65F000EF7
:10247800E75B1200040101A1B4D0311D0101D26F44
:102488000401321D0101D36F100ED35F010ED36515
:1024980021D0010ED25DFC0ED359D8B01BD0D25139
:1024A800040133252A6F0101D351040134212B6F14
:1024B80023BF10D02353D8B40DD023BF03D0200E90
:1024C800236108D00101D2510401215F0101D351D8
:1024D8000401225B040100B582D02353D8A404D0A0
:1024E800D2C121F4D3C122F4040123BF08D03F0E86
:1024F800236505D0236BD2C121F4D3C122F4040192
:1025080023BF6DD01F0E23656AD021510101D25D12
:102518000401216F22510101D3590401226F010ED8
:10252800215D800E2259D8A02DD0D880FF0E2157CA
:10253800FF0E2257215100016C6F04012251000146
:102548006D6F6E6B100E6B6F00016C376D376E37E9
:10255800D8B006D00401235100016E5DD8A005D083
:102568000401235100016E5FD8800401213722370E
:1025780000016B2FE9D7D880FF0E04012157FF0E09
:10258800225722D00401215100016C6F040122510D
:1025980000016D6F6E6B100E6B6F00016C376D373D
:1025A8006E37D8B006D00401235100016E5DD8A063
:1025B80005D00401235100016E5FD8800401213742
:1025C800223700016B2FE9D704010191236B2151B8
:1025D800332722513423D2C121F4D3C122F4040178
:1025E80001911200010E0001676F0401019B89929D
:1025F800600E34DB0001E26F67DB0001676F8982E0
:10260800200E676505D08992E20E4CDB8982000CAA
:1026180004012553D8A40DD0400E00016A6F0101B2
:10262800A26B816B606BD1910001E9690101D185D1
:1026380014D00401252D07D0610E00016A6F010135
:10264800D1B50BD0ECD7020E0401256306D0820E5B
:1026580000016A6F0101D1A5E2D7010EEA6E0001FF
:102668006A51E96EEF6A010EEA6E6A29E96EEF6A4D
:102678008992610EF3DA0101D46B000167510101FF
:10268800D46112D021DB0001696F200E0101D461F1
:1026980008D0010EEA6ED45100016A25E96E69C0BE
:1026A800EFFF0101D42BE9D789826AC06BF00001E2
:1026B8006751C0EC0CF00001686F040100BF1ED028
:1026C8002553D8A406D000016853D8A417D03ADE01
:1026D800000C0401252D12D000016853D8B403D092
:1026E8000401008F0BD02CDE0401266BEAC027F40E
:1026F800275132EC09F0B19025DE000C040100AF3F
:1027080018D001A302D01EDE26D004012553D8A478
:1027180004D0020E246301D011D00401252D03D06A
:102728002453D8B40BD0020E0401256302D0244DE3
:1027380005D006DE08EC09F032EC09F00401265356
:10274800D8A408D001A703D0FDDD019904D0040165
:10275800018901D0F7DD200E0001676502D0200E47
:10276800676F0001E93D38D06853D8B445D06AC0D6
:102778006BF0675138EC0CF0000AD8A43DD0010189
:10278800F851F911D8A400DE04012553D8A41BD0B0
:10279800018B01A318D02A51316F100E2B5D326FB7
:1027A800B2503127B35032233251B36E3151B26E29
:1027B800C7DD08EC09F032EC09F0C4DD010E0401B4
:1027C800246F0193019125C4E9F0040100BF52DE92
:1027D800FA0E0401356F10D0040100AF0DD06AC0A5
:1027E8006BF00001675138EC0CF0000AD8A404D053
:1027F80041DEFA0E0401356F010EEA6E200E00016B
:102808006A25E96E68C0EFFF020E040125633CD01B
:102818000001E93D39D0080E010160650BD0080EB2
:10282800816508D0080EA26505D0C7EC0DF000013F
:10283800E96F23D0080E0101606508D0080E816594
:1028480005D0A4EC0EF00001E96F17D0080E0101C5
:10285800606508D0080EA26505D0A4EC0EF0000152
:10286800E96F0BD0080E0101816507D0080EA2653B
:1028780004D0A4EC0EF00001E96F0001E94904D08E
:10288800F9DDFA0E0401356F020E0401256302D04A
:102898000101D1950001E93D010E12008A94000062
:1028A8008A8201012653D8B43AD004010553D8A42A
:1028B80036D08992200ED2D90001E26F120EF2D9D9
:1028C8008982600E0001E215D8B406D08992270EDD
:1028D800E9D9700EE7D989820001E2AD04D0899266
:1028E800E20EE0D989820101D46B01012651D4613D
:1028F8000ED001EE0FF0D451E926EFCF67F001EECC
:1029080028F0D451E92667C0EFFFD42BEED726C1B3
:102918003FF10101266BE7C027F1CD69CE690101BE
:102928003F53D8B4CAD0CA69D1970ADD020E000154
:10293800E86F8992A00E92D90001E26FAA0ED7EC37
:102948000BF0AA0ED7EC0BF0AA0ED7EC0BF0010196
:102958002751D7EC0BF004010551A4D90401055304
:10296800D8A421D001013F51FBEC0BF00101D46B3D
:1029780001013F51D4610AD001EE28F0D451E92673
:10298800EF50FBEC0BF00101D42BF2D7CDC1CFF106
:10299800CEC1D0F10101D051E1EC0BF00101CF51D2
:1029A800E1EC0BF03CD00401052D1DD001013F5195
:1029B80004EC0CF00101D46B01013F51D4610AD041
:1029C80001EE28F0D451E926EF5004EC0CF0010197
:1029D800D42BF2D70101D05104EC0CF00101CF51F6
:1029E80004EC0CF01CD001013F511EEC0CF001016D
:1029F800D46B01013F51D4610AD001EE28F0D451C3
:102A0800E926EF501EEC0CF00101D42BF2D701019E
:102A1800D0511EEC0CF00101CF511EEC0CF001015D
:102A28003F511808D46F000E3DD90101D42FFBD7B0
:102A380089820401065132EC09F0040100A302D096
:102A480000873AD004010553D8A40BD00093008125
:102A58000B6B0C6B0101036B046B93EC08F072DCDD
:102A680029D0040100A126D00B1D116F0C1D126F77
:102A780011C413F412C414F400910083CE1C0D6F1A
:102A8800CF1C0E6F1A0E0D250101036F000E0401F5
:102A98000E210101046F93EC08F054DC0C0E0401C4
:102AA8000D5D0F6F000E0E59106F0F810FC4F6F1F8
:102AB80010C4F7F11EEC09F0F288120041DC8A928A
:102AC80000008A840401275132EC09F00001E26F0A
:102AD8008992200EC3D80001E26F130EE3D88982D1
:102AE800F292F288010E0001E86F2CD40001676FA2
:102AF800F29826DC0101D1B36CD0710E0001686F29
:102B08008992200EABD80001E26F6851CBD8898238
:102B18008992A00EA3D80001E26F89828992E20E01
:102B28009DD80001E26F89828992270EBBD8700E6A
:102B3800B9D889828992210EB5D8000EB3D8898276
:102B48008992220EAFD8010EADD889828992230EC0
:102B5800A9D8030EA7D889828992240EA3D8000E7B
:102B6800A1D889828992250E9DD8040127519AD827
:102B780089828992260E96D8060E94D889828992DF
:102B8800300E90D80001ED518DD80001EE518AD851
:102B98000001EF5187D8AA0E85D8AA0E83D889825A
:102BA80089922A0E7FD80001ED517CD80001EE51A0
:102BB80079D80001EF5176D8AA0E74D8AA0E72D827
:102BC80089828992310E6ED8200E6CD889820101D3
:102BD800D1838992E10E66D889820001672D03D0DE
:102BE800130E686F03D0130E0001686F8992200ED0
:102BF80059D80001685156D889828A9200008A847F
:102C0800010E0001E86FE969A6EC11F0D69BF28885
:102C1800120000016D516F6F6E6B6F510101CE1B79
:102C280000016E510101CD1B080E0001706F0001FB
:102C38007053D8B412D00101CEAF08D0D890CD3798
:102C4800CE37100ECE1B210ECD1B04D0D89001011B
:102C5800CD37CE3700017007EAD7120000016B6F3D
:102C6800080E6C6F6D6BD89000016D376BAF02D09A
:102C7800898601D08996898480A802D000016D8157
:102C8800D89000016B3789946C2FEDD76D511200E5
:102C9800080E7F6E8984000089947F067F50D8A42F
:102CA800F9D7120000016B6F080E6C6F00016BAF53
:102CB80002D0898601D089968984D89000016B3723
:102CC80089946C2FF3D71200080E00016B6F6C6BA0
:102CD800D89000016C37898480B86C818994000190
:102CE8006B2FF6D76C5112007F6E000C00016B6FD2
:102CF8006B510C0FF66E2D0EF76AF722F86A080072
:102D0800F55012007E000D0A434F4E4E4543540DB8
:022D18000A00AF
:10300000F86A7F50F76E7F50F66E0900F5507F6EBC
:103010007F6A0900F5507F26000E7F227F50120044
:10302000F86A7F50F76E7F50F66E0900F5507F6E9C
:103030007F6A0900F5507F26000E7F227F50120024
:107B0000F86A00017151F76E7051F66E12000900AB
:107B1000F5501200040102A514D06DC070F06EC0C3
:107B200071F0EEDFA68EA69CA684A688040102B79B
:107B3000F29E550EA76EAA0EA76EA682040102B78A
:107B4000F28E1200040102A527D06DC070F06EC045
:107B500071F0D6DF0101D46B200E0101D4610CD08D
:107B6000010EEA6E6FC0E9FFEF50F56E0D000001E7
:107B70006F2B0101D42BF0D70A00A68EA69CA684F9
:107B8000040102B7F29E550EA76EAA0EA76EA6823A
:107B9000040102B7F28EA694120000016E6F040178
:107BA00002A510D0080E0101D46F8B988B960001AE
:107BB0006EBF8B86D89000016E378B880101D42F61
:107BC000F4D78B981200080E0101D46F00016E6B80
:107BD000040102A515D0D89000016E378B8882A0D1
:107BE00005D082B207D082A407D004D082A204D0EC
:107BF00082A402D000016E818B980101D42FEBD7B3
:107C000000016E511200040102A50ED0800E000189
:107C10006D6F8B9A050EC1DF00016DAF04D0D3DF0D
:107C200000016D6FF9D78B8A1200040102A51ED0E6
:107C30008BAA0DD0E8DF8B9A030EAFDF030118513A
:107C4000ACDF03011A51A9DF03011951A6DFBBDF25
:107C50000101D46F0301192B000E1A231951D8A466
:107C600005D08B8A19511A11D8B4182B0101D4519F
:107C70001200040102A535D0F29E0297F2BE0287DF
:107C80008B8A00016A6B6B6B000167516A5D6851FA
:107C90006B59D8B025D06ABB05D06AC06DF06BC0F7
:107CA0006EF038DF00016C6B200E00016C610AD0B1
:107CB000BCDF01EE40F000016C51E926D4C1EFFFBA
:107CC0006C2BF2D76AC06DF06BC06EF0400E0001F5
:107CD0006F6F38DF200E00016A27000E6B23D4D7A8
:047CE000FF0012008F
:020000040030CA
:0E000000FF061100FF8880FF0FC00FE00F40C9
:00000001FF
